:1000000010C01FC01EC01EC01CC01BC01AC019C01B
:1000100018C04AC016C015C014C013C012C011C009
:1000200010C011241FBECFE5D1E0DEBFCDBF20E060
:10003000A0E6B0E001C01D92A436B207E1F751D0AE
:100040006EC0DECF1F920F920FB60F9211248F93C6
:100050009F9383ED90E30197F1F700C00000B09902
:100060000EC08091630081110CC081E08093630019
:1000700090916100911180E08093610002C0109224
:100080006300B19908C080916200811106C081E0CF
:100090008093620002C0109262009F918F910F9036
:1000A0000FBE0F901F9018951F920F920FB60F92D0
:1000B00011248F939F93809160008F5F80936000E5
:1000C00080916000823030F09BB388E089278BBB41
:1000D000109260009F918F910F900FBE0F901F9014
:1000E00018958AB38F688ABBBA9A87B387BBDB9AA5
:1000F00085B7826085BF80E28BBF8ABF83E080BD09
:1001000082E080BF89BF89EF86BF789495E08091B7
:100110006100813011F493BFFACF13BEF8CFF89489
:02012000FFCF0F
:00000001FF
