:1000000010C01FC01EC05AC11CC01BC01AC019C0DE
:1000100018C018C016C015C014C013C012C011C03B
:1000200010C011241FBECFE5D1E0DEBFCDBF20E060
:10003000A0E6B0E001C01D92A636B207E1F7B1D14B
:1000400028C4DECF1F920F920FB60F9211242F9368
:100050008F939F938091600090916100019690939F
:1000600061008093600080916000909161008B3D01
:10007000954040F09BB388E089278BBB10926100CC
:10008000109260009F918F912F910F900FBE0F9053
:100090001F901895813059F018F0823079F008954A
:1000A000D89A20E04FEF60E081E0A6D10895D99A78
:1000B00020E040E06FEF81E09FD10895DA9A2FEFC2
:1000C00040E060E081E098D108952F923F924F92F6
:1000D0005F926F927F928F929F92AF92BF92CF92D8
:1000E000DF92EF92FF920F931F93CF93DF93CDB7E1
:1000F000DEB72A970FB6F894DEBF0FBECDBF1B0147
:10010000880F991F9A838983BC0180E090E08CD28C
:100110009B01AC0160E070E08AE794E4F1D16B01EF
:100120007C0188EE93E069817A819FD380E090E042
:100130007BD29B01AC01C701B60179D120E030E050
:100140004AE754E427D344D22114310409F49DC072
:1001500080E090E069D26B017C012BEA3AEA4AE246
:1001600050E418D369837A838B839C8331D21E82B7
:100170001D8214E055245394462E0F2EF8EC6F2E5A
:10018000712CF02D20E030E03A87298788B3812751
:1001900088BB20E030E040E85FE369817A818B81B1
:1001A0009C81AAD188230CF461C0A7019601C701E4
:1001B000B6013ED14B015C0120E03FEF4FE757E431
:1001C000E5D218160CF040C020E030E04AE754E4D5
:1001D000C701B60195D16D837E838F83988720E018
:1001E00030E04AEF54E4D6D24B015C0120E030E02D
:1001F00040E85FE381D188230CF120E03FEF4FE737
:1002000057E4C501B401C2D21816A4F420E030E0CE
:1002100040E251E46D817E818F819885BBD2D8D137
:100220006115710531F1C3010197F1F76150710951
:10023000D1F71FC0C501B401CBD102C061E070E0AD
:10024000CB010197F1F715C020E030E04FE753E410
:1002500069817A818B819C8199D218164CF4C501F1
:10026000B401B6D1CB010197F1F706C0052D01C04D
:10027000042D802F8A95F1F789859A8501969A87B2
:1002800089872816390609F081CF2A960FB6F89487
:10029000DEBF0FBECDBFDF91CF911F910F91FF90B9
:1002A000EF90DF90CF90BF90AF909F908F907F9016
:1002B0006F905F904F903F902F9008951F920F92F4
:1002C0000FB60F9211242F933F934F935F936F9329
:1002D0007F938F939F93AF93BF93EF93FF9386B3D7
:1002E00083708130A9F0823071F5809165008111B1
:1002F0002EC081E08093650090916300911180E0B1
:100300008093630066E970E087E194E0DEDE1FC061
:100310008091640081111BC081E080936400809112
:1003200062008F5F8093620080916200833010F0E2
:100330001092620080916200ADDE66E970E087E1B4
:1003400094E0C3DE04C01092650010926400FF9137
:10035000EF91BF91AF919F918F917F916F915F913D
:100360004F913F912F910F900FBE0F901F901895B6
:100370008AB38F688ABBBA9A80E28BBF8ABF83E058
:1003800080BD82E080BF89BF89EF86BF26D080E232
:100390009EE40197F1F720E04FEF60E081E02CD080
:1003A0000895E6DF789492E080916300811103C0A4
:1003B000DB9A13BEF9CF93BFF7CF98E0882334F4CC
:1003C000DF9A000000000000DF9803C0DF9A000001
:1003D000DF98880F915091F70895CF93DF93C3E092
:1003E000D0E080E0EADF80E0E8DF80E0E6DF219730
:1003F000C1F7DF91CF910895FF920F931F93CF9391
:10040000DF93882371F0F22E042F162FD82FC0E02F
:10041000812FD3DF802FD1DF8F2DCFDFCF5FDC1394
:10042000F7CFDF91CF911F910F91FF900895505812
:10043000BB27AA270ED070C161D130F066D120F061
:1004400031F49F3F11F41EF456C10EF4E095E7FB22
:100450004CC1E92F72D180F3BA1762077307840782
:10046000950718F071F49EF58AC10EF4E0950B2EF5
:10047000BA2FA02D0B01B90190010C01CA01A001F6
:100480001124FF27591B99F0593F50F4503E68F151
:100490001A16F040A22F232F342F4427585FF3CF92
:1004A000469537952795A795F0405395C9F77EF463
:1004B0001F16BA0B620B730B840BBAF09150A1F0AC
:1004C000FF0FBB1F661F771F881FC2F70EC0BA0F32
:1004D000621F731F841F48F4879577956795B795BA
:1004E000F7959E3F08F0B3CF9395880F08F09927B2
:1004F000EE0F979587950895D4D008F481E008957C
:100500000CD00AC102D140F0F9D030F021F45F3FA5
:1005100019F0EBC0511134C1EEC00FD198F39923FB
:10052000C9F35523B1F3951B550BBB27AA276217B7
:100530007307840738F09F5F5F4F220F331F441FFC
:10054000AA1FA9F333D00E2E3AF0E0E830D0915034
:100550005040E695001CCAF729D0FE2F27D0660F21
:10056000771F881FBB1F261737074807AB07B0E860
:1005700009F0BB0B802DBF01FF2793585F4F2AF076
:100580009E3F510568F0B1C0FBC05F3FECF3983E61
:10059000DCF3869577956795B795F7959F5FC9F7D3
:1005A000880F911D9695879597F90895E1E0660F5C
:1005B000771F881FBB1F621773078407BA0720F0D5
:1005C000621B730B840BBA0BEE1F88F7E09508953E
:1005D000BCD088F09F5790F0B92F9927B751A0F061
:1005E000D1F0660F771F881F991F1AF0BA95C9F7C7
:1005F00012C0B13081F0C3D0B1E00895C0C0672F00
:10060000782F8827B85F39F0B93FCCF38695779576
:100610006795B395D9F73EF490958095709561955F
:100620007F4F8F4F9F4F0895E89409C097FB3EF48A
:1006300090958095709561957F4F8F4F9F4F99232F
:10064000A9F0F92F96E9BB279395F69587957795AD
:100650006795B795F111F8CFFAF4BB0F11F460FF6D
:100660001BC06F5F7F4F8F4F9F4F16C0882311F0C5
:1006700096E911C0772321F09EE8872F762F05C0D9
:10068000662371F096E8862F70E060E02AF09A9574
:10069000660F771F881FDAF7880F9695879597F969
:1006A0000895990F0008550FAA0BE0E8FEEF161603
:1006B0001706E807F907C0F012161306E407F50756
:1006C00098F0621B730B840B950B39F40A2661F0CA
:1006D000232B242B252B21F408950A2609F4A1406D
:1006E000A6958FEF811D811D089597F99F6780E87A
:1006F00070E060E008959FEF80EC089500240A9474
:100700001616170618060906089500240A941216EC
:100710001306140605060895092E0394000C11F41F
:10072000882352F0BB0F40F4BF2B11F460FF04C0CC
:100730006F5F7F4F8F4F9F4F089557FD9058440F25
:10074000551F59F05F3F71F04795880F97FB991F30
:1007500061F09F3F79F087950895121613061406ED
:10076000551FF2CF4695F1DF08C01616170618067A
:10077000991FF1CF86957105610508940895E89455
:10078000BB2766277727CB0197F908958ADF08F4FE
:100790008FEF08950AD0C0CFB1DF28F0B6DF18F090
:1007A000952309F0A2CFA7CFEBCFC7DFA8F39923FA
:1007B000D9F35523C9F3950F50E0551FAA27EE270B
:1007C000FF27BB2700240894679520F4E20FF31F4E
:1007D000B41F0A1E220F331F441FAA1F6695A9F7D4
:1007E000779530F4F30FB41F0A1E121E08F46395B8
:1007F000330F441FAA1F221F769599F7879520F47F
:10080000B40F0A1E121E631F440FAA1F221F331F9C
:100810008695A9F7862F712D602D11249F57504082
:100820008AF0E1F088234AF0EE0FFF1FBB1F661F1E
:10083000771F881F91505040A9F79E3F510570F0D7
:1008400054CF9ECF5F3FECF3983EDCF386957795CF
:100850006795B795F795E7959F5FC1F7FE2B880FD2
:10086000911D9695879597F90895AA1BBB1B51E199
:1008700007C0AA1FBB1FA617B70710F0A61BB70B10
:10088000881F991F5A95A9F780959095BC01CD01B5
:060890000895F894FFCF6B
:00000001FF
