S00F0000434F4E54524F4C2E73726563F4
S113000010C01FC01EC08AC11CC01BC01BC019C0A9
S113001018C017C016C015C014C013C012C011C038
S113002010C011241FBECFE5D1E0DEBFCDBF20E05C
S1130030A0E6B0E001C01D92A836B207E1F7E8D10E
S113004062C4DECF1F920F920FB60F9211242F932A
S11300508F939F9380916200909163000196909397
S1130060630080936200809165008130B1F58091D6
S11300706200909163008F3C9740B8F180916000DA
S11300809091610088309740E8F49BB388E0892719
S11300908BBB80916400813031F018F0823031F0F4
S11300A007C016BE05C08AE086BF02C084E186BFD1
S11300B0809160009091610001969093610080931B
S11300C0600006C0109265001092610010926000FA
S11300D0109263001092620008C0109261001092A6
S11300E0600010926300109262009F918F912F9193
S11300F00F900FBE0F901F901895813051F018F09B
S1130100823069F0089520E04FEF60E081E0AED1E5
S1130110089520E040E06FEF81E0A8D108952FEF2B
S113012040E060E081E0A2D108952F923F924F9287
S11301305F926F927F928F929F92AF92BF92CF9273
S1130140DF92EF92FF920F931F93CF93DF93CDB77C
S1130150DEB72A970FB6F894DEBF0FBECDBF1B01E2
S1130160880F991F9A838983BC0180E090E096D21E
S11301709B01AC0160E070E08AE794E4FBD16B0181
S11301807C0188EE93E069817A81A9D380E090E0D4
S113019085D29B01AC01C701B60183D120E030E0D8
S11301A04AE754E431D34ED22114310409F49DC0FA
S11301B080E090E073D26B017C012BEA3AEA4AE2D8
S11301C050E422D369837A838B839C833BD21E823F
S11301D01D8214E055245394462E0F2EF8EC6F2EF6
S11301E0712CF02D20E030E03A8729878BB38127EA
S11301F08BBB20E030E040E85FE369817A818B814A
S11302009C81B4D188230CF461C0A7019601C70175
S1130210B60148D14B015C0120E03FEF4FE757E4C2
S1130220EFD218160CF040C020E030E04AE754E466
S1130230C701B6019FD16D837E838F83988720E0A9
S113024030E04AEF54E4E0D24B015C0120E030E0BE
S113025040E85FE38BD188230CF120E03FEF4FE7C8
S113026057E4C501B401CCD21816A4F420E030E060
S113027040E251E46D817E818F819885C5D2E2D1BF
S11302806115710531F1C3010197F1F761507109ED
S1130290D1F71FC0C501B401D5D102C061E070E03F
S11302A0CB010197F1F715C020E030E04FE753E4AC
S11302B069817A818B819C81A3D218164CF4C50183
S11302C0B401C0D1CB010197F1F706C0052D01C0DF
S11302D0042D802F8A95F1F789859A8501969A874E
S11302E089872816390609F081CF2A960FB6F89423
S11302F0DEBF0FBECDBFDF91CF911F910F91FF9055
S1130300EF90DF90CF90BF90AF909F908F907F90B1
S11303106F905F904F903F902F9008951F920F928F
S11303200FB60F9211242F933F934F935F936F93C4
S11303307F938F939F93AF93BF93EF93FF9386B372
S113034083708130A9F0823071F58091670081114A
S11303502EC081E08093670090916500911180E048
S11303608093650066E970E087E194E0DEDE1FC0FB
S11303708091660081111BC081E0809366008091AA
S113038064008F5F8093640080916400833010F078
S11303901092640080916400B0DE66E970E087E149
S11303A094E0C3DE04C01092670010926600FF91CF
S11303B0EF91BF91AF919F918F917F916F915F91D9
S11303C04F913F912F910F900FBE0F901F90189552
S11303D08AB389688ABBBA9A80E28BBF8ABF83E0FA
S11303E080BD83E880BF82E083BF16BE98E09EBDD7
S11303F08CB989EF90E09BBD8ABD29D080E29EE450
S11304000197F1F720E04FEF60E081E02FD00895ED
S1130410DFDF789480916500811105C0DB9A8EB589
S11304208D7F8EBDF7CF8EB582608EBDF3CF98E001
S1130430882334F4DF9A000000000000DF9803C032
S1130440DF9A0000DF98880F915091F70895CF93B9
S1130450DF93C3E0D0E080E0EADF80E0E8DF80E023
S1130460E6DF2197C1F7DF91CF910895FF920F93B3
S11304701F93CF93DF93882371F0F22E042F162F4E
S1130480D82FC0E0812FD3DF802FD1DF8F2DCFDF96
S1130490CF5FDC13F7CFDF91CF911F910F91FF90C6
S11304A008955058BB27AA270ED070C161D130F0EF
S11304B066D120F031F49F3F11F41EF456C10EF4BE
S11304C0E095E7FB4CC1E92F72D180F3BA176207BC
S11304D073078407950718F071F49EF58AC10EF42A
S11304E0E0950B2EBA2FA02D0B01B90190010C0140
S11304F0CA01A0011124FF27591B99F0593F50F458
S1130500503E68F11A16F040A22F232F342F4427AF
S1130510585FF3CF469537952795A795F0405395A7
S1130520C9F77EF41F16BA0B620B730B840BBAF077
S11305309150A1F0FF0FBB1F661F771F881FC2F7E2
S11305400EC0BA0F621F731F841F48F487957795F6
S11305506795B795F7959E3F08F0B3CF9395880FAD
S113056008F09927EE0F979587950895D4D008F44D
S113057081E008950CD00AC102D140F0F9D030F0E6
S113058021F45F3F19F0EBC0511134C1EEC00FD11B
S113059098F39923C9F35523B1F3951B550BBB2746
S11305A0AA2762177307840738F09F5F5F4F220FF3
S11305B0331F441FAA1FA9F333D00E2E3AF0E0E8EC
S11305C030D091505040E695001CCAF729D0FE2F38
S11305D027D0660F771F881FBB1F261737074807CA
S11305E0AB07B0E809F0BB0B802DBF01FF27935880
S11305F05F4F2AF09E3F510568F0B1C0FBC05F3FDA
S1130600ECF3983EDCF3869577956795B795F79567
S11306109F5FC9F7880F911D9695879597F908955F
S1130620E1E0660F771F881FBB1F621773078407FB
S1130630BA0720F0621B730B840BBA0BEE1F88F70A
S1130640E0950895BCD088F09F5790F0B92F992772
S1130650B751A0F0D1F0660F771F881F991F1AF0C9
S1130660BA95C9F712C0B13081F0C3D0B1E0089592
S1130670C0C0672F782F8827B85F39F0B93FCCF313
S1130680869577956795B395D9F73EF490958095BF
S1130690709561957F4F8F4F9F4F0895E89409C0DF
S11306A097FB3EF490958095709561957F4F8F4FA1
S11306B09F4F9923A9F0F92F96E9BB279395F695B7
S11306C0879577956795B795F111F8CFFAF4BB0F35
S11306D011F460FF1BC06F5F7F4F8F4F9F4F16C099
S11306E0882311F096E911C0772321F09EE8872F23
S11306F0762F05C0662371F096E8862F70E060E0DF
S11307002AF09A95660F771F881FDAF7880F969557
S1130710879597F90895990F0008550FAA0BE0E8FB
S1130720FEEF16161706E807F907C0F012161306AF
S1130730E407F50798F0621B730B840B950B39F4EF
S11307400A2661F0232B242B252B21F408950A2655
S113075009F4A140A6958FEF811D811D089597F995
S11307609F6780E870E060E008959FEF80EC089553
S113077000240A941616170618060906089500247C
S11307800A9412161306140605060895092E0394F6
S1130790000C11F4882352F0BB0F40F4BF2B11F46A
S11307A060FF04C06F5F7F4F8F4F9F4F089557FDC9
S11307B09058440F551F59F05F3F71F04795880FCB
S11307C097FB991F61F09F3F79F087950895121662
S11307D013061406551FF2CF4695F1DF08C016160E
S11307E017061806991FF1CF8695710561050894BF
S11307F00895E894BB2766277727CB0197F90895D6
S11308008ADF08F48FEF08950AD0C0CFB1DF28F053
S1130810B6DF18F0952309F0A2CFA7CFEBCFC7DF3F
S1130820A8F39923D9F35523C9F3950F50E0551F25
S1130830AA27EE27FF27BB2700240894679520F4F6
S1130840E20FF31FB41F0A1E220F331F441FAA1FF7
S11308506695A9F7779530F4F30FB41F0A1E121E9C
S113086008F46395330F441FAA1F221F769599F746
S1130870879520F4B40F0A1E121E631F440FAA1F8B
S1130880221F331F8695A9F7862F712D602D112401
S11308909F5750408AF0E1F088234AF0EE0FFF1F83
S11308A0BB1F661F771F881F91505040A9F79E3FBA
S11308B0510570F054CF9ECF5F3FECF3983EDCF3CC
S11308C0869577956795B795F795E7959F5FC1F7F7
S11308D0FE2B880F911D9695879597F90895AA1B6D
S11308E0BB1B51E107C0AA1FBB1FA617B70710F017
S11308F0A61BB70B881F991F5A95A9F78095909549
S10D0900BC01CD010895F894FFCF67
S9030000FC
