S00F0000434F4E54524F4C2E73726563F4
S113000010C01FC01EC061C01CC01BC01AC019C0D4
S113001018C018C016C015C014C013C012C011C037
S113002010C011241FBECFE5D1E0DEBFCDBF20E05C
S1130030A0E6B0E001C01D92A636B207E1F7BAD03F
S1130040FFC0DECF1F920F920FB60F9211242F9391
S11300508F939F938091600090916100019690939B
S113006061008093600080916000909161008F3CFA
S1130070974040F09BB388E089278BBB10926100C6
S1130080109260009F918F912F910F900FBE0F904F
S11300901F901895813059F018F0823079F0089546
S11300A0D89A20E04FEF60E081E0AFD00895D99A6C
S11300B020E040E06FEF81E0A8D00895DA9A2FEFB6
S11300C040E060E081E0A1D008951F920F920FB646
S11300D00F9211242F933F934F935F936F937F93CA
S11300E08F939F93AF93BF93EF93FF9386B32FEFB9
S11300F030E792E0215030409040E1F700C000002A
S11301008370813019F0823079F024C080916500C9
S1130110811124C081E08093650090916300911166
S113012080E0809363001AC080916400811116C03E
S113013081E080936400809162008F5F809362000D
S113014080916200833010F010926200809162000E
S1130150A1DF04C01092650010926400FF91EF913A
S1130160BF91AF919F918F917F916F915F914F91CB
S11301703F912F910F900FBE0F901F9018958AB347
S11301808F688ABBBA9A80E28BBF8ABF83E080BD46
S113019082E080BF89BF89EF86BF28D08FE19EE4CB
S11301A00197F1F700C0000020E04FEF60E081E02C
S11301B02CD00895E4DF789492E08091630081115B
S11301C003C0DB9A13BEF9CF93BFF7CF98E088231F
S11301D034F4DF9A000000000000DF9803C0DF9AC7
S11301E00000DF98880F915091F70895CF93DF9323
S11301F0C3E0D0E080E0EADF80E0E8DF80E0E6DF33
S11302002197C1F7DF91CF910895FF920F931F9328
S1130210CF93DF93882371F0F22E042F162FD82F5B
S1130220C0E0812FD3DF802FD1DF8F2DCFDFCF5FD1
S1130230DC13F7CFDF91CF911F910F91FF900895B9
S1070240F894FFCF5C
S9030000FC
